:020000040001F9
:10B00000D03C0020F5B001000FB1010011B10100EA
:10B010000000000000000000000000000000000030
:10B0200000000000000000000000000013B101005B
:10B03000000000000000000015B1010017B1010080
:10B0400019B1010019B1010055BE010019B101008B
:10B0500019B10100000000002DB7010019B1010075
:10B0600019B1010019B1010019B1010019B10100B4
:10B0700019B1010019B1010019B1010019B10100A4
:10B0800019B101004DB9010019B1010019B1010058
:10B0900059BD010019B1010061BD010019B10100E4
:10B0A00019B1010019B1010000000000000000000A
:10B0B0000000000000000000000000000000000090
:10B0C0000348854600F078F80048004759C9010058
:10B0D000D03C0020401E00BF00BF00BF00BF00BF2B
:10B0E00000BF00BF00BF00BF00BF00BF00BFF1D165
:10B0F000704700000321094802680A4302600848BB
:10B1000002680A4302600748804707480047FEE795
:10B11000FEE7FEE7FEE7FEE7FEE70000240500404D
:10B1200054050040B5BD0100C1B0010030B50B466B
:10B13000014600202022012409E00D46D5409D4211
:10B1400005D31D469540491B254695404019154697
:10B15000521E002DF1DC30BD70B5002425460028BC
:10B1600001DA01244042002901DA01254942FFF7B2
:10B17000DDFFAC4200D04042002C00D0494270BDFF
:10B1800003460B439B0703D009E008C9121F08C000
:10B19000042AFAD203E00B780370401C491C521EAB
:10B1A000F9D2704703460A780270401C491C002AF5
:10B1B000F9D1184670470000064C0125064E05E0FF
:10B1C000E36807CC2B430C3C98471034B442F7D3C8
:10B1D000FFF77AFF24D5010044D50100012206497A
:10B1E00010B59202881800F0A1FB03487D21C90028
:10B1F0000C3800F045FB10BD4C2B0020034610B569
:10B200000020024603E09C5C2018C0B2521C8A4217
:10B21000F9D310BD70B5067800240525330001F080
:10B220001AF806230B191C340423CA2A37D101212A
:10B230000170448044720BE0C18843888A40134304
:10B24000083189B24380C180102928D302210170BE
:10B25000C48024E00272032115E0C48843889C4224
:10B2600002D28688B34201D9057018E0437A9B1850
:10B27000437289680A55C188491C89B2C1804288D5
:10B2800091420CD10421017009E00570437A934288
:10B2900005D142884A80007A0871002070BDFF20E5
:10B2A00070BD0000FFB50646F9480D46417889B0EB
:10B2B0001446002902D000203071E5E1F44801274E
:10B2C00047703279002A03D0F2A1002001F038FB48
:10B2D00030790C2836D006DC030000F0BCFF060CE9
:10B2E0002F3133343833122835D02BDDFD28F1D0FF
:10B2F000FE2827D1AFE1E64800780028EAD012986E
:10B300000028E7D00020009005E000980C99401C30
:10B310000090884205D22118E24800F0F1FA002896
:10B32000F3D000980028D5D003202871CA202870B7
:10B33000009881B269802046AC6088E1002007E077
:10B34000D34807709CE1D2480221017098E10320A4
:10B35000CF49087094E1B06800780190B1684978ED
:10B36000090208430190B1688978090408430190F3
:10B37000B168C978090608430190B0680199001DB9
:10B380000390C948814273D1C849C94800F078FA8E
:10B39000BF4FC548B86000207861039800783861D5
:10B3A00003994978090201433961039880780004C0
:10B3B000084338610399C978090601433961039943
:10B3C00003984979007909020143039880790004C0
:10B3D00008430399C97909060143F9602120012135
:10B3E000000300F0F5FB394610310422B14800F0AB
:10B3F00053FCAD480090AF4869460422001F00F09E
:10B400004BFCAC4839460C310422001D00F044FCD2
:10B41000CA202870122028710C20688068460079A4
:10B42000207068464079607068468079A0706846F0
:10B43000C079E070386900906846007820716846ED
:10B440004078607168468078A0716846C078E07185
:10B450000C980090684600782072684640786072C8
:10B4600068468078A0726846C078E072ECE0FFE73A
:10B4700087484069814247D1084671884018001FBB
:10B4800083490090486177880C983F1F202830D36B
:10B49000202F2ED3002029E00399112309185B03E4
:10B4A000019AC0181018202200F0F6FB1120009914
:10B4B00040030818019A04A91018202200F0B6FBD6
:10B4C000734900208A6949699446009A039B1218BF
:10B4D0009B5C04AA125C934201D061460097401C19
:10B4E0002028F2D36A484161009820300090B84289
:10B4F000D2D367480123826941691B038A1A9A42A1
:10B5000002D3090B09038161614841690191026914
:10B5100091427CD30027FF220097009BE254009BBE
:10B520005B1C0093202BF8D3002100915848009910
:10B53000006920224118112040030818214600F01C
:10B54000ABFB009801212030890200908842EDD3A6
:10B550000020009018E011235B0320222146C01830
:10B5600000F064FB4A49009A0969002013188B42D5
:10B5700004D2235C401CDF192028F7D3101888421E
:10B5800006D2203210460092414909698842E2D32E
:10B5900038463F4FF96888422AD1022000F0E6F988
:10B5A00041480121C043B86001900020786121200A
:10B5B000000300F00DFB3946103104223D4800F035
:10B5C0006BFB3C4839460C310422001D00F064FB43
:10B5D00011204003009037486F4604223946083056
:10B5E00000F05AFB30483946C0430422009015E071
:10B5F0002D48B860002001907861212001210003CE
:10B6000000F0E6FA22492B481031042200E009E05C
:10B6100000F042FB24486946042200902548001FA0
:10B6200000F03AFBCA20287012202871042068809C
:10B630006846007920706846407960706846807975
:10B64000A0706846C079E070AC6020466988FFF75A
:10B65000D5FD287314E0B06800780190B16849788E
:10B66000090208430190B1688978090408430190F0
:10B67000B168C978090608430190B068001D0390BD
:10B68000002003493071487000200DB0F0BD00006B
:10B69000842000204F50434F44453A202564200D1C
:10B6A0000A0000004C2F0020A5A5A5A5C027090071
:10B6B000402B00200810020070B504464088002886
:10B6C0001BD0207800F02EFFA07800F02BFFE07850
:10B6D00000F028FF207900F025FF002505E0A06894
:10B6E000405D00F01FFF6D1CADB26088A842F6D827
:10B6F000207B00F017FF0020608070BD10B512C8DD
:10B7000002680B1908389A420AD1074A52688360C6
:10B71000914201D8501A01E0501A401E844201D8CB
:10B72000002010BD201A10BDA0200020F0B500257B
:10B73000FF248BB0013401262F460195204601F0ED
:10B740008DFB002808D047484068304204D0464866
:10B750000021201835430160241D76007F1CA4B20F
:10B76000042FEBD3FF207D3001F078FB002807D0B9
:10B770003E4800210160400705433D4800690190B3
:10B780003C4C280712D0012700262F420AD03A4805
:10B79000B200111808690969C004C00E8903A258D3
:10B7A000890F90477F00761C042EEED3002D57DAC8
:10B7B00000200590401E4DE0A11940310878850613
:10B7C000AD0E42B2521C39D00121A940089A009115
:10B7D000114233D080090390284600F0C5FE800056
:10B7E00020580490002802D10398032826D10398FA
:10B7F0000099032802D10598084305901F4AA80024
:10B8000080180068019A8003800F114202D002283C
:10B8100002D013E0032811D10399032907D102288C
:10B820001CD00221284601F0E5FA7F1CFFB20498E3
:10B83000002803D0049A284603999047761C042ECA
:10B84000BAD3002F0CD00A4800690199884207D06A
:10B850000190059800273E460890ADE70321E1E7F7
:10B860000BB0F0BD00630040006000407C61004010
:10B8700000050050E42F0020006500400007005044
:10B88000034A5268026041605118816070470000AD
:10B89000A020002010B5002001F058FB002010BDB2
:10B8A0008307FF22DB0E9A408907090E9940002882
:10B8B0000BDA0007000F0838830808489B001818A7
:10B8C000C36993430B43C3617047830804489B00DB
:10B8D0001B181868904308431860704700ED00E09B
:10B8E00000E400E0BFF34F8F04490348C860BFF392
:10B8F0004F8F00BFFDE700000400FA0500ED00E0F7
:10B90000426803689A4202D10020C04370474368EE
:10B91000C268D25C0A704168491C41604168826813
:10B92000914201D30021416000207047002803D0DC
:10B93000002901D0022A02D20020C0437047C16012
:10B9400000210160416082600846704710B50649D9
:10B950000020086048608860C8600349403908607A
:10B96000486001F0C1FB10BD401101400149087061
:10B9700070470000B020002070B50C4C04252078E2
:10B98000030000F068FC050B1104060C11000849C7
:10B9900000E008490848FFF773FF257070BD0648AE
:10B9A000FFF7ACFE0028F9D1FFF79CFFB020002084
:10B9B0001027000030750000B82F002070B5074B2D
:10B9C0000646187814460D46002801D100F088FA82
:10B9D00022462946304600F003F870BD5834002056
:10B9E00070B50E4618214843134914464518E86AB5
:10B9F0001835002804D001280FD0022805D113E003
:10BA0000284600F0A3FAA04201D2002411E0224609
:10BA10003146284600F001FC0BE0284600F096FA7B
:10BA2000A042F4D20446F2E73146284600F0C5FBB6
:10BA30000446204670BD000058340020F7B598B089
:10BA400007A80290402000250495039018980C4602
:10BA5000059506902178641C002977D0252907D008
:10BA600002A800F08BFB05980028F3DA1BB0F0BDAC
:10BA700001220021022713460826207823281BD004
:10BA80002B2816D02D2802D0302806D101E01943EA
:10BA900000E03943641C002AEFD1002220780346DD
:10BAA000303B0A2B0AD20A235A431218303A641C3C
:10BAB000F4E704200143EDE73143EBE70023C7B28D
:10BAC0002E2F0AD1641C20780746303F0A2F04D25B
:10BAD0000A277B431B18303BF4E76C280DD06828FD
:10BAE0000BD0702852D00BDC25285AD058282ED0E5
:10BAF00063280CD0642858D110E02078641CECE74F
:10BB0000732832D0752817D078284ED11FE01A98A4
:10BB10001A9A0068011D1160017843E01A981A9F73
:10BB20000068061D3E6000680191009201460A22ED
:10BB300002A800F016FA38E01A981A9F0068061D4D
:10BB40003E600068009201910A2209E02FE01A98F5
:10BB50001A9F0068061D3E60006800920191102245
:10BB6000014602A800F062FA1FE01A981A9A0068CB
:10BB7000011D116006683178761C002915D002A8D5
:10BB800000F0FCFA05980028F5DA0EE01A981A9AE7
:10BB900000680823011D11600168102200960195BC
:10BBA000DFE7252102A800F0E9FA641C5BE70598AD
:10BBB000002800DC5AE70498002804D0024607A9B0
:10BBC0001898FFF7FBFE04990598401805904DE77B
:10BBD00070B50D46044600F09BF8192001F01AF9E3
:10BBE000002D06D0012D06D0022D06D0032D08D140
:10BBF0001AE0602110E0202100E05221002000F036
:10BC000043FD2002010E002000F03EFD2004010E45
:10BC1000002000F039FDE1B2002000F035FD1920D0
:10BC200001F000F9002070BDD821E7E7F8B517460C
:10BC30000D460646174C00E0641E00F056F8C0079B
:10BC400001D0002CF8D1192001F0E4F80B210020DC
:10BC500000F01AFD3002010E002000F015FD300446
:10BC6000010E002000F010FDF1B2002000F00CFDEC
:10BC70000021084600F008FD05E00021084600F01C
:10BC800003FD28706D1C7F1EF7D2192001F0CAF841
:10BC90000020F8BD40420F00F8B5064600251446C6
:10BCA0000F46000503D101213046FFF791FF300513
:10BCB000000D012100190903884203D93019050537
:10BCC0002D0D641B22463946304600F01BFA002D2C
:10BCD00009D0361901213046FFF77AFF391930466D
:10BCE0002A4600F00FFA0020F8BD10B5192001F027
:10BCF00091F80521002000F0C7FCFF21002000F092
:10BD0000C3FC0446192001F08DF8204610BD000048
:10BD100010B5104C00E0641EFFF7E7FFC00701D02C
:10BD2000002CF8D1192001F075F80621002000F050
:10BD3000ABFC192001F076F8FFF7D7FFC107C90F58
:10BD4000491E0140641E880701D4002CF4D1002054
:10BD500010BD000040420F0010B501F05BF910BDAE
:10BD600010B506484068002805D08047002801D05B
:10BD700000F09CFA10BD00F0BBFC10BDDC200020E0
:10BD800010B50A4C616809186160A268E168101872
:10BD900000235941A060E16005496068FFF7C6F9DA
:10BDA000002902D12068401C206010BDA020002086
:10BDB000E703000010B500F0D7FC002805D01F49AC
:10BDC0001D484860C8131E4988611E48018CC9B2CD
:10BDD00001290BD1828C120708D1028D1206120F95
:10BDE000042A03D1828D1206120F0AD0012921D113
:10BDF000818C09071ED1018D0906090F0A2904D07B
:10BE000007E0114A01219160F5E7828D1206120FB9
:10BE100005D00D290ED1808D0006000F0AD10B48E8
:10BE20000168012904D00A49016001680129FCD197
:10BE3000C021416110BD0000DFFF07C000050040C8
:10BE4000006C0040C00F00F00006004000EC06400F
:10BE50007593000010B501F05FFA10BD1CB501A884
:10BE600000F0F6FA00281FD1684602790FA10020E1
:10BE700000F066FD68460F49027908464430FFF736
:10BE8000C9F9002810D1012000900A484430838865
:10BE900002460146243A343944381B1FFFF702FAA0
:10BEA00004481030FFF708FC1CBD00002530327834
:10BEB000000000005C2F002010B5FFF78FF90A2169
:10BEC0000648FFF7DDFC0548303801462039886018
:10BED0000521243001702421818010BDAC2F002069
:10BEE00010B5124C02202061606111A0A0611348BE
:10BEF000E0610120800220620020A06260620CA14B
:10BF0000A1642146E0621039E16410212165A06539
:10BF10006065E0650AA1E01DFFF744F909A120462C
:10BF2000FFF740F92020A07110BD00005834002018
:10BF30005465726D696E616C00000000483000202D
:10BF40005254540053454747455200000269C168A6
:10BF50008A4203D88068401A801800E0501A401EB8
:10BF60007047FFB583B00E4670420D9F0C9C009049
:10BF7000002900DB0846012502E0FFF7EDF86D1C03
:10BF800005998842F9DA0698A84200D90546002C9E
:10BF900004D0002E01DB780700D5641EB80702D557
:10BFA0000698002810D0F8070ED1002C0CD0A5421E
:10BFB0000AD22021641E039800F0E0F80398C068BC
:10BFC0000028F2DA07B0F0BD0398C0680028F9DB5A
:10BFD000002E02DA2D21009E02E0780707D52B21E2
:10BFE000039800F0CBF80398C0680028EADBB80794
:10BFF000800F022810D1069800280DD1002C0BD0FC
:10C00000A54209D23021641E039800F0B7F80398C6
:10C01000C0680028F2DAD5E7019700943146069B04
:10C02000059A039800F002F8CCE70000FFB581B054
:10C0300001261F4634460A9D029802E0FFF776F873
:10C04000641C03998842F9D2A74200D93C460B9858
:10C05000C00718D1002D16D00B98800701D5002FEE
:10C0600002D0202000900CE03020FBE76D1E0099EC
:10C07000019800F083F80198C06800283DDB002D8E
:10C0800001D0AC42F2D30198C068002835DB012F03
:10C0900001D97F1E06E031460298FFF747F8039961
:10C0A000884202D303984643F1E7154F3146029880
:10C0B000FFF73CF80146029A7143511A0291395C2C
:10C0C000019800F05BF80198C068002805DB304655
:10C0D0000399FFF72BF80600E8D10B98C0070CD0A6
:10C0E000002D0AD0AC4208D220216D1E019800F02C
:10C0F00045F80198C0680028F2DA05B0F0BD0000EC
:10C1000014D50100F8B515460E460746194CFFF741
:10C11000FFFD192000F07EFE0221002000F0B4FA9D
:10C120003802010E002000F0AFFA3804010E0020A2
:10C1300000F0AAFAF9B2002000F0A6FA05E0317882
:10C140000020761C00F0A0FA6D1E002DF7D11920FA
:10C1500000F068FE641EFFF7C8FD800702D0002CC7
:10C16000F8D101E0002C03D103480168491C0160AB
:10C170000020F8BD40420F008020002010B504468A
:10C1800080686368421C934205D323681954A260F7
:10C19000E068401CE060A2686068824209D12168C2
:10C1A0002069FFF70BFCA168884203D00020C04340
:10C1B000E06010BD0020A06010BDF7B5064682B05B
:10C1C00000200090F46817463069A04201D9051B91
:10C1D00002E0B168201A0D1AB0686D1E001BA8425B
:10C1E00000D80546BD4200D33D4670682A46001976
:10C1F0000399FEF7C5FF00987F1B40190090039834
:10C20000641940190390B068A04200D10024F46082
:10C21000002FD9D1009805B0F0BDF7B5C668174614
:10C2200004468068851B6068BD4206D98019019963
:10C23000FEF7A6FFF019E060FEBD2A4680190199BD
:10C24000FEF79EFF01987E1B411932466068FEF79B
:10C2500097FFE660FEBD30B47446641E2578641C0A
:10C26000AB4200D21D46635D5B00E31830BC18474B
:10C2700002E008C8121F08C1002AFAD170477047AF
:10C28000002001E001C1121F002AFBD1704700000D
:10C29000BFF34F8F04490348C860BFF34F8F00BFFF
:10C2A000FDE700000400FA0500ED00E00EB50021F6
:10C2B000029000916A4601910148FFF7E9FF0EBD27
:10C2C0000140000010B58268C368934203D000F0BB
:10C2D000C7F9002010BD052010BD002906D0002A96
:10C2E00002D0531E134203D0092070470E2070471E
:10C2F0000160838000218160C1600846704710B5ED
:10C300008268C3689A1A83889A4203D800F0B2F907
:10C31000002010BD042010BD094B9B68002B07D0E6
:10C32000002A07D0002805D00068037C002B03D02A
:10C330000820704707207047417442610020704711
:10C34000BC200020FFB59007002581B014460E46A2
:10C35000002832D11B4F002C31D000F097FD0498FB
:10C3600078610320387033461821224600204B4361
:10C37000BC601834C10089180D704D708E704C600F
:10C380001C19401C0328F5DBFD607D7001240E485C
:10C39000BD702405046003211420FFF781FA0B48C7
:10C3A00004600B4C0198A06003211120FFF778FA7C
:10C3B00060683861002005B0F0BD0720FBE7BD6074
:10C3C000FBE70000BC20002080E200E000E100E08C
:10C3D00000150140FEB50D461B4917468968044605
:10C3E00000292AD0002C28D0052D01D20720FEBD1F
:10C3F0006069002821D0607C012820D0002601F04F
:10C400001FF8C0001049019089684018694601F082
:10C4100041F8002815D0012101700C494460496899
:10C420000830E2C0084901988968411868460078D8
:10C43000487000F031FE0020FEBD0820FEBD2E46F3
:10C44000DDE70420FEBD0000BC20002000150140F7
:10C4500010B5044609488168C2688088511A814233
:10C4600007D10121064800F05FFB002801D005201C
:10C4700010BD21460148FFF725FF10BDC42F002045
:10C48000B520002070B50446224888B01E460D0035
:10C4900042601CD0A888296882B21F48FFF71DFFA0
:10C4A000002815D1A889A96882B21B481030FFF76F
:10C4B00014FF00280CD1202218496846FEF760FEC0
:10C4C000A06806902079002804D0012103E007200D
:10C4D00008B070BD002168460175067760790028B4
:10C4E00000D00E2069464875E0780290A07803904D
:10C4F00020780190607800900949684600F0B0FA11
:10C500000028E5D100F036FB02480121401C00F074
:10C510000BFBDDE7B4200020C42F0020D4D40100A1
:10C5200069D2010010B501460A48FFF7E8FE040091
:10C530000ED100F0C5FB00280AD107490548FFF7D6
:10C54000C1FE002804D10121034800F06DFB044620
:10C55000204610BDD42F0020B420002010B50520A7
:10C5600000F070FC10BD0000024909182020085698
:10C5700070470000E42F0020F8B52348C168002967
:10C580003ED00E6821494C680769C078E11B0D0256
:10C590002D0AED1C002814D101201D4A0004506012
:10C5A0001B4A403A50601B49400008601A49086025
:10C5B0001A49012008602F20FEF78CFD1249012046
:10C5C000C870B54200D23546E81900020F4B000A88
:10C5D000403318600D4A5168001B091B0902090A03
:10C5E0000002000AC91C814209D9506818602F2036
:10C5F000FEF770FD01200749400480390860F8BD4E
:10C6000000F044FCF8BD0000BC20002000150140F3
:10C610004013014080E200E000E100E00010014032
:10C6200010B50E4900234A788C78A24212D0521CD1
:10C63000D2B24A70022A00D14B704A78074B92005E
:10C6400018339A580260086910180002000A08613D
:10C65000012010BD0360002010BD0000BC200020A0
:10C66000826883881A4003689A5C0A708168491C52
:10C6700081607047C26883881A4003689954C16812
:10C68000491CC1607047000030B57D22D2000024F3
:10C690001346002802D001280FD01FE010488568FB
:10C6A000002D01D05B1EFAD284600E4BD9618168E7
:10C6B000002910D1521EFAD20DE00B488568002DDA
:10C6C00001D05B1EFAD28460084BD96181680029D1
:10C6D00001D1521EFAD284609869C1B2084630BDB9
:10C6E000003100400035004000410040004500405E
:10C6F000F8B51C4C2078002833D02069002807D0DA
:10C700000026E068002805D00025002E04D011E0A6
:10C710000126F6E70125F8E7684652DF052804D030
:10C72000002804D0FFF7C2FD04E0012602E02169E1
:10C7300000988847002D10D1608869460880A0685D
:10C7400061DF052804D0002804D0FFF7AFFD04E026
:10C75000012502E0E168A0688847002EDCD0002DAA
:10C76000D3D0F8BDDC2000201048018CC9B20129CB
:10C7700017D1818C090714D1018D09060A0F03D145
:10C78000828D1206120F0ED0090F012903D1828D5E
:10C790001206120F07D0032903D1808D0006000F67
:10C7A00001D000207047012070470000C00F00F04A
:10C7B000F8B52C49C8680A690C780F7989688646EB
:10C7C000944600913EE00099E20055182A7836E040
:10C7D000182353436968521CC918AB78D2B29342EC
:10C7E00000D100220B78022B02D0032B27D123E0AB
:10C7F0004E680346014603E0B14204D00B46C969C6
:10C8000000291CD0F8E7002919D08B4208D1C06953
:10C81000002805D1144F0126BE600026B44601272A
:10C820000E68C969D961002909D00B689B190B6092
:10C8300005E00174C06900E000210028F9D16978A1
:10C840009142C5D12146641EE4B20029BBD10549FD
:10C8500062460A61C8600F71704501D00120F8BDC1
:10C860000020F8BDBC20002000100140F8B50446AF
:10C8700031480026C168009107784EE02E48F90043
:10C8800080680D1843E0002C02D02046E4691FE0C8
:10C890002878182141436A68401CC0B2511828709A
:10C8A000AA78904200D12E700A784868012A30D1C7
:10C8B000027C002A2DD18A684260CA6882600A69B7
:10C8C000C260496981611C490979002900D046602C
:10C8D000194943680A699C46991A0902174B090AC3
:10C8E000994202D28268891807E06146511A09020A
:10C8F0008268090A8A4202D9511A016000E0066082
:10C900004660012186600174C66100F0CDFB002CF9
:10C91000B9D1287869788842BAD138467F1EFFB2EB
:10C920000028ABD10448C1680098814201D00120A1
:10C93000F8BD0020F8BD0000BC200020FFFF7F00F4
:10C940000FB408B504A900916A460399FFF776F879
:10C9500001B008BC04B01847012000F02FFA0520F0
:10C9600000F02CFA062000F029FAFFF7A5FA00F0F3
:10C97000FBFB1E4C1E4B20460C3007C807C3194654
:10C98000084601221C389202426001608918C26088
:10C99000816001460323174A1030FFF773FD00281A
:10C9A00001D0FFF783FCFEF775FF002212492068D3
:10C9B000FFF710FD002801D0FFF778FC00220F4997
:10C9C0006068FFF707FD002801D0FFF76FFC012129
:10C9D0000022C903A068FFF7FDFC002801D0FFF783
:10C9E00065FCFFF73BFAFEF7C7FFFAE7BCD401008E
:10C9F000342300201DD20100CD0C0000660600008B
:10CA00008207D30EFF229A408907090E10B599407C
:10CA100000280BDA03071B0F083B9C080C4BA400F3
:10CA2000E318DC6994430C43DC6107E08408094B9C
:10CA3000A400E418236893430B432360C106C90E86
:10CA400001208840044908600449086010BD0000C6
:10CA500000ED00E000E400E080E200E000E100E042
:10CA6000F3B52A4C0746E07E81B0002801D00820AB
:10CA7000FEBD002F00D1264F012638783146814077
:10CA800024488160386800F0ABF90021786800F034
:10CA90008BF9214DB8696862787D397D0843E86675
:10CAA00003CFE8606961387B083F01280FD100217E
:10CAB000B86800F079F9387B3146814015488160CB
:10CAC000F86800F08DF9F968B868A96028610298E3
:10CAD00060603969216000280ED0FF230F481D33A4
:10CAE000397F0022C250FF234533C2500D4A0C4803
:10CAF00050600220FFF784FF042028600020E075CA
:10CB00002076A075E676A076FEBD00002C300020D1
:10CB1000F4D4010000050050002500400020004032
:10CB20008000020000230040F8B5104B81245E68AD
:10CB30000022A4000E4D002E00D0AC60DF7D002F3F
:10CB40000BD01A7E002A04D0002E00D06C60112079
:10CB5000F8BD18610122197604E0D9750024D86067
:10CB60005C761C7600F012F8F8BD00002C30002036
:10CB70000023004010B5044CA07E002803D100F033
:10CB8000D7F90120A07610BD2C300020F8B5234D38
:10CB9000A87E104301D100F0CBF96868204C002832
:10CBA00005D081201F49800048600020F8BDFF208B
:10CBB000453000212150FF212531204600F058F951
:10CBC0000546FF210931204600F052F90746FF21B2
:10CBD0004531204600F04CF9064639463143294399
:10CBE000E9D02846304306D100F078F90B48C17DE2
:10CBF000407E8142DFD800210848002DC17501D058
:10CC00000320F8BD002E01D00F20F8BD817E012049
:10CC1000002901D02060C8E76060C6E72C30002002
:10CC2000002000400023004010B5034600F048F803
:10CC3000002801D0112010BD034A00209175936097
:10CC4000908200F003F810BD2C300020F8B50026CB
:10CC5000194FFF251D357E510120B86000F0B8FA4C
:10CC6000164C6168002910D022E0FF2701372946C1
:10CC7000114800F0FDF8002802D1A08AB842F6D190
:10CC8000A08AB84201D000F0A3FAA08AA17D884210
:10CC9000EBD3A18AC81FF9380CD0074F2946384674
:10CCA00000F0E6F80028F9D00120F8600020A07517
:10CCB0003046F8BD0F26F9E7002000402C30002058
:10CCC0000248807D002800D0012070472C300020D1
:10CCD000F8B5154900260E6014484068002805D0B4
:10CCE000144A13489060144A04201060CA684F69BF
:10CCF0008D680C690020C043C86048618860086185
:10CD0000104600F03FF8384600F03CF8601C02D0B6
:10CD1000204600F037F8681C02D0284600F032F8B0
:10CD20000248C6764660F8BD002500402C30002041
:10CD3000840202000023004080E100E030B5520090
:10CD40000A439900039C0A432102049D0A432904D3
:10CD50000A43024980004018026030BD00070050BD
:10CD600030B552000A439900039C0A432102049DF6
:10CD70000A4329040A43024980004018026030BD7A
:10CD8000000700501CB5002100910B4601220191C3
:10CD9000FFF7E6FF1CBD1CB500220B4600921146B2
:10CDA0000192FFF7CBFF1CBD1CB500220B46009281
:10CDB00011460192FFF7D4FF1CBD0000024A032177
:10CDC0008000801801607047000700501CB50021EA
:10CDD00000910B46012201911146FFF7AFFF1CBDE8
:10CDE0001CB5002100910B46012201911146FFF76D
:10CDF000B7FF1CBD820006481018026803231B04FD
:10CE00009A430260026809040A4302607047000006
:10CE100000070050012181400148C16070470000B7
:10CE200000050050012181400148816070470000E9
:10CE300000050050012181400148816070470000D9
:10CE4000000500500121044A814050680B4683438D
:10CE500093600840D06070470005005003494018B7
:10CE60000068012800D000207047000000600040EA
:10CE70004058002800D00120704703221202801879
:10CE80004068084000D001207047000070B50124C0
:10CE90000B49600408600B4940108860094940391B
:10CEA0008860094D6C602F20FEF714F9AC60074DC7
:10CEB00000242F202C61FEF70DF9EC7070BD0000EE
:10CEC00080E100E04013014000100140BC20002040
:10CED00010B50120FFF7B6FF10BD000030B50A48BD
:10CEE000FF21C57D0022094C0931094B002D6250FC
:10CEF00007D09969437EC268D154417E491C41766E
:10CF000030BD986930BD00002C300020002000406A
:10CF1000002500401FB501236A46137010720348B4
:10CF2000019106C8684690471FBD00002C300020C4
:10CF3000FF220548253200218150FF22093281500D
:10CF400001210160704700000020004070B50125FC
:10CF50000024ED070126002825D0012822D10D202C
:10CF6000FFF768FF0D20FFF731FF0D20FFF762FF8D
:10CF70000F20FFF72BFF0C20FFF728FF00210E20CA
:10CF8000FFF709FF19480F2181600C21C1600E21B4
:10CF900001614562154940314C6115498C60154964
:10CFA0004C60066070BD1920FFF744FF1920FFF7A1
:10CFB0000DFF1920FFF73EFF1720FFF707FF162090
:10CFC000FFF704FF00211820FFF7E5FE0A481721AC
:10CFD00081601621C1601821016145620649403116
:10CFE0004C6106498C600649DAE7000000450040C4
:10CFF0000041004000430040003500400031004047
:10D000000033004010B53220FEF7BAFE0620FFF7CD
:10D0100019FF10BDFEB51F4C00252769E06802907E
:10D020006846FFF7FDFA0190FFF7C2FB064601983C
:10D03000002822D000230098E16817E00E680A4615
:10D04000864202D9301A086012E0801BF3180026CD
:10D050001660D668D169B446002E07D0FE18360295
:10D06000360A566066469660D56115460029E5D1B8
:10D070002846E160FFF7FAFB06E02846FFF7F6FBDB
:10D08000002801D1002E02D00298FFF775FA002087
:10D090002071FEBDBC20002001200249000508606F
:10D0A0007047000000E200E010B50E4BD96800297F
:10D0B00006D002680C68A24204D8A21A0A60C161B4
:10D0C000D86010BD0B4604E00B46C969121B00294D
:10D0D00004D00C689442F7D3A41A0C600260C161BA
:10D0E000D86110BDBC200020F8B51D4DEC68002CA7
:10D0F00034D01C48002740682969401A0602360AC5
:10D100002068B04218D8361AC7192246107CE46944
:10D1100000280FD0002010746B69002B07D0916994
:10D1200050699847002805D0FFF7C0F802E0516920
:10D1300090698847002CE3D16978A878814206D1AC
:10D14000401CC0B2A870022801D10020A870044978
:10D150000006800D18310F50FFF79EFFF8BD00004C
:10D16000BC2000200015014010B50023134A052102
:10D170001846FFF7E7F8002801D0FFF797F8104AA4
:10D1800001211048FFF7C8F8002801D0FFF78EF8FA
:10D190000C480D4A0121001DFFF7BEF8002801D000
:10D1A000FFF784F80748094A01210830FFF7B4F86F
:10D1B000002801D0FFF77AF810BD00005C210020A4
:10D1C0005DC50100BCD4010005D00100D1CE010035
:10D1D000FF2107481D31002242500648828A81689B
:10D1E000895C828A521C82820348C16170470000B8
:10D1F000002000402C300020002500401FB50021F9
:10D200006A4611701072044882680192817506C8DE
:10D21000684690471FBD00002C30002010B50078F4
:10D22000002819D0022817D1FF220C481D320021F6
:10D230008150FF2245328150FF2225328150FFF775
:10D2400047FD084903230846054A1030FFF71AF93D
:10D25000002801D0FFF72AF810BD00000020004090
:10D260001DD20100242300207CB50178284D01291E
:10D270000AD002292FD000292CD129462548FFF7B2
:10D2800021F8002833D036E0406801782148103872
:10D29000FFF735F81F4C103C002805D001216A46E5
:10D2A00011700190684608E0A068E168081A01283A
:10D2B00005D1002069460870684669688847A068FB
:10D2C000E168081AA188884204D811480121401C4D
:10D2D000FFF72AFC7CBD02216A461170C0680190EC
:10D2E0000B480121401CFFF71FFC68460CE00121A0
:10D2F0000748FFF799FC07488168C0688842E9D170
:10D300000320694608706846696888477CBD00004C
:10D31000B4200020D42F0020F0B5454D012185B068
:10D3200049022846FFF7A9FD01270026414C0028A5
:10D3300024D0FF2125312846FFF79AFD00281DD073
:10D34000FF2025302E5081203B4980008860A07E40
:10D35000002800D16F6002216846017037490868D3
:10D3600008600390E17D68460172E0680190E6750F
:10D37000267606CC6846083C90472BE004212846D8
:10D38000FFF77BFD002825D0FF2109312846FFF754
:10D390006FFD00281ED0FFF7A1FDE07D617E884271
:10D3A00018D1207E002808D0627EE168E0752069EF
:10D3B000E0602676667610460AE0A07E002800D15E
:10D3C0006F6081201C4980008860E675607EE1689E
:10D3D000FFF7A0FDFF211D312846FFF749FD00287A
:10D3E0000DD0A18AA07D814202D2FFF7F1FE06E0B6
:10D3F000FF211D316E50002801D0FFF7FFFEFF21F5
:10D4000045312846FFF734FD00280ED0FF20453077
:10D410002E50A07E002800D02F60E07D002804D090
:10D42000E675607EE168FFF775FD05B0F0BD0000B0
:10D43000002000402C3000200023004080240040C9
:10D44000EFF30580C005C00D1AD0103840B2002897
:10D4500008DA0107090F083989080C4A8900891878
:10D46000C96904E081080A4A8900891809688007A7
:10D47000C00EC1400806800F012803D0032803D046
:10D4800002207047002070470120704700ED00E047
:10D4900000E400E042788378521CD2B2934200D17B
:10D4A00000220378934201D1002070470A7041683E
:10D4B000407818225043081870470000FC200020D4
:10D4C0001C2100203C2100200F10080A0000000051
:10D4D00000E0D701090000000B0000000A00000076
:10D4E00008000000000000000000000000E0D7017C
:10D4F00003000000090000000B0000000A0000000B
:10D5000008000000000000000000000000E0D7015B
:10D510000300000030313233343536373839414278
:10D520004344454644D50100802000207C00000093
:10D5300070C20100C0D50100FC200020D41B0000F7
:10D5400080C2010000000000020000000000000096
:10D55000FFFFFFFF000000000000000000000000CF
:10D5600000000000000000000000000000000000BB
:10D5700000000000000000000000000000000000AB
:10D58000000000000000000000000000000000009B
:10D59000000000000000000000000000000000008B
:10D5A000000000000000000000000000000000007B
:10D5B0000000000000000000000000000024F40053
:040000050001B0C185
:00000001FF
